:10000000743871F0740E71F0740171F075550175EA
:1000100056057557097C007580FF7D007E17910F8E
:10002000DE00748071F090042DED2582F582E435B8
:1000300083F5830D7B20E493600871FBA31BDBF643
:1000400080DC8000748271F0900449E49360057153
:10005000FBA380F791148000748171F0900456E442
:1000600093600571FBA380F791148000748171F097
:10007000900465E493600571FBA380F7911474010B
:1000800071F080007540007A0075B0FFC2B020B4F6
:1000900004740111F220B504740211F220B6047444
:1000A0000311F2D2B0C2B120B404740411F220B52D
:1000B00004740511F220B604740611F2D2B1C2B272
:1000C00020B404740711F220B504740811F220B6AC
:1000D00004740911F2D2B2C2B320B405740A081133
:1000E000F220B504740011F220B604740B11F20270
:1000F0000089FFB40B03313B220A8000BA0111F5DD
:100100003531B1748071F0E535243071FB910622F0
:10011000BA0211F53631B1748171F0E536243071CF
:0E012000FB910622F5377A0031B1748271F03E
:10012E00E537243071FB9106740171F022E53564D8
:10013E000370159106E5366405700D9106E537647A
:10014E00097005910631EE22E5358555F065F070A2
:10015E001B9106E5368556F065F070109106E53771
:10016E008557F065F0700591063195227A000C05E1
:10017E0040E54064036034748171F0900474E4933C
:10018E00601A71FBA380F77A00754000748171F0DC
:10019E00900482E493600571FBA380F7740171F003
:1001AE00020089900421EF93F5802275400090049F
:1001BE0091E493600571FBA380F7C2A575F028D278
:1001CE00A49106C2A49106D5F0F5800075B0FF91FA
:1001DE00149114911491149114740171F00200840D
:1001EE007A007F0090049FE493600571FBA380F773
:1001FE009114740171F0748071F09004AAE493600C
:10020E000571FBA380F7020370FF748971F0EF2470
:10021E003071FB9106740171F0EF64016012EF64AE
:10022E00026007EF6403600571D90202B40202E8AE
:10023E007A00740171F0748071F09004C3E49360DD
:03024E000571FB3C
:10025100A380F7740171F0020307FF0A8000BA015D
:1002610011F55531B1748071F0E555243071FB9170
:100271000622BA0211F55631B1748171F0E55624A6
:100281003071FB910622F5577A0031B1748271F019
:10029100E557243071FB9106740171F0748071F09F
:1002A1009004EBE493600571FBA380F7740171F096
:1002B1000201FE740171F0748071F09004D0E49336
:1002C100600571FBA380F7748B71F0EC75F00A8403
:1002D100243071FB748C71F0E5F0243071FB9114C2
:1002E100740171F00201FE7C00740171F07480717F
:1002F100F09004DCE493600571FBA380F791147422
:100301000171F00201FE75B0FFC2B020B4047401A6
:10031100515B20B5047402515B20B6047403515B38
:10032100D2B0C2B120B4047404515B20B504740589
:10033100515B20B6047406515BD2B1C2B220B40441
:100341007407515B20B5047408515B20B60474092D
:10035100515BD2B2C2B320B405740A08515B20B517
:10036100047400515B20B604740B515B02030775E2
:10037100B0FFC2B020B4047401511720B504740257
:07038100511720B6047403BC
:100388005117D2B0C2B120B4047404511720B50477
:100398007405511720B60474065117D2B1C2B220A1
:1003A800B4047407511720B5047408511720B60413
:1003B80074095117D2B2C2B320B405740A08511790
:1003C80020B5047400511720B604740B51170203AA
:1003D80070748171F09004B3E493600571FBA3809D
:1003E800F7740171F002006C9106F590C2A1D2A3D6
:1003F800C2A3229106F590D2A1D2A3C2A32278FF6C
:1004080079FFD9FED8FA227805D8FE227BC87AFA75
:100418007928D9FEDAFADBF622407924301912025B
:100428007800103F3F57454C434F4D452020202032
:10043800202020494E495449414C4953494E4720B0
:10044800002E2E2E2E2E2E2E2E2E2E2E2E005341E8
:100458004645545920434F4E534F4C4500454E5442
:1004680045522050415353574F524400414343454E
:1004780053532044454E4945440041434345535353
:10048800204752414E5445440053595354454D203A
:100498004C4F434B45440041444D494E204D4F4439
:1004A800450050494E4D4F44453A0045584954205F
:1004B80041444D494E204D4F44450053455420502A
:1004C800415353574F5244005820415454454D50BE
:1004D80054532000524553455420415454454D50DF
:1004E80054530050415353574F52442053544F5282
:0304F80045440078
:00000001FF
